:1000000012C019C018C017C016C015C014C013C044
:1000100012C011C010C00FC00EC00DC00CC00BC06C
:100020000AC009C008C011241FBECFE5D4E0DEBF5E
:10003000CDBF02D092C0E4CF87E087BB80E090E0E4
:1000400021E034E042E0823391058CF458B352272A
:1000500058BB58B3532758BBEFE4F3EC3197F1F793
:1000600000C0000058B3542758BB0196ECCF89E17B
:1000700090E058B3522758BB58B3532758BBFFE7FB
:1000800058E361E0F15050406040E1F700C00000EB
:1000900058B3542758BB0197009759F78CE090E06C
:1000A00058B3522758BB58B3532758BB7FEFE0E7EC
:1000B000F2E07150E040F040E1F700C0000058B3BA
:1000C000542758BB0197009759F786E090E058B342
:1000D000522758BB58B3532758BB5FEF61EE74E00B
:1000E000515060407040E1F700C0000058B3542701
:1000F00058BB0197009759F78CE090E058B352270E
:1001000058BB58B3532758BBEFEFF0E752E0E1502C
:10011000F0405040E1F700C0000058B3542758BBEE
:100120000197009759F789E190E058B3522758BBDF
:1001300058B3532758BB6FE778E3E1E06150704054
:10014000E040E1F700C0000058B3542758BB0197C6
:0E015000009759F780E090E076CFF894FFCF4B
:00000001FF
